Component: ARM Compiler 5.06 update 4 (build 422) Tool: armlink [4d35d2]

==============================================================================

Section Cross References

    main.o(i.main) refers to adc.o(i.ADCInit) for ADCInit
    main.o(i.main) refers to uart.o(i.uart_init) for uart_init
    main.o(i.main) refers to uart.o(i.led_init) for led_init
    main.o(i.main) refers to speaker.o(i.speaker_init) for speaker_init
    main.o(i.main) refers to fan.o(i.fan_init) for fan_init
    main.o(i.main) refers to uart.o(i.led_on) for led_on
    main.o(i.main) refers to uart.o(i.delay_ms) for delay_ms
    main.o(i.main) refers to uart.o(i.led_off) for led_off
    main.o(i.main) refers to adc_voltage.o(i.Obtaining_adc_voltage) for Obtaining_adc_voltage
    main.o(i.main) refers to strlen.o(.text) for strlen
    main.o(i.main) refers to uart.o(i.SendToUart) for SendToUart
    main.o(i.main) refers to main.o(.bss) for buf
    uart.o(i.UART_IRQHandler) refers to uart.o(i.RecvFromUart) for RecvFromUart
    uart.o(i.UART_IRQHandler) refers to uart.o(i.__ARM_common_switch8) for __ARM_common_switch8
    uart.o(i.UART_IRQHandler) refers to uart.o(i.speaker_op) for speaker_op
    uart.o(i.UART_IRQHandler) refers to fan.o(i.fan_on) for fan_on
    uart.o(i.UART_IRQHandler) refers to uart.o(i.delay_ms) for delay_ms
    uart.o(i.UART_IRQHandler) refers to uart.o(i.led_on) for led_on
==============================================================================

Removing Unused input sections from the image.

    Removing main.o(.rev16_text), (4 bytes).
    Removing main.o(.revsh_text), (4 bytes).
    Removing main.o(i.delay), (18 bytes).
    Removing main.o(i.delay_us), (14 bytes).
    Removing uart.o(.rev16_text), (4 bytes).
    Removing uart.o(.revsh_text), (4 bytes).
    Removing speaker.o(.rev16_text), (4 bytes).
    Removing speaker.o(.revsh_text), (4 bytes).
    Removing speaker.o(i.delay), (18 bytes).
    Removing speaker.o(i.delay_us), (14 bytes).
    Removing fan.o(.rev16_text), (4 bytes).
    Removing fan.o(.revsh_text), (4 bytes).
    Removing fan.o(i.delay_us), (14 bytes).
    Removing timer32.o(.rev16_text), (4 bytes).
    Removing timer32.o(.revsh_text), (4 bytes).
    Removing timer32.o(i.__NVIC_EnableIRQ), (24 bytes).
    Removing timer32.o(i.delay32Ms), (108 bytes).
    Removing timer32.o(i.init_timer32), (260 bytes).
==============================================================================

Image Symbol Table

    Local Symbols

    Symbol Name                              Value     Ov Type        Size  Object(Section)

    RESET                                    0x00000000   Section      192  startup_lpc11xx.o(RESET)
    ../clib/angel/boardlib.s                 0x00000000   Number         0  boardinit1.o ABSOLUTE
    ../clib/angel/boardlib.s                 0x00000000   Number         0  boardinit3.o ABSOLUTE
    ../clib/angel/boardlib.s                 0x00000000   Number         0  boardinit2.o ABSOLUTE
    ../clib/angel/boardlib.s                 0x00000000   Number         0  boardshut.o ABSOLUTE
    ../clib/angel/handlers.s                 0x00000000   Number         0  __scatter_zi.o ABSOLUTE
    ../clib/angel/handlers.s                 0x00000000   Number         0  __scatter_copy.o ABSOLUTE
    ../clib/angel/kernel.s                   0x00000000   Number         0  rtexit2.o ABSOLUTE
    ../clib/angel/kernel.s                   0x00000000   Number         0  __rtentry4.o ABSOLUTE
    ../clib/angel/kernel.s                   0x00000000   Number         0  __rtentry.o ABSOLUTE
    ../clib/angel/kernel.s                   0x00000000   Number         0  rtexit.o ABSOLUTE
    ../clib/angel/kernel.s                   0x00000000   Number         0  __rtentry2.o ABSOLUTE
    ../clib/angel/rt.s                       0x00000000   Number         0  rt_errno_addr.o ABSOLUTE
    ../clib/angel/rt.s                       0x00000000   Number         0  rt_locale_intlibspace.o ABSOLUTE
    ../clib/angel/rt.s                       0x00000000   Number         0  aeabi_idiv0_sigfpe.o ABSOLUTE
    ../clib/angel/rt.s                       0x00000000   Number         0  aeabi_idiv0.o ABSOLUTE
    ../clib/angel/rt.s                       0x00000000   Number         0  rt_errno_addr_intlibspace.o ABSOLUTE
    ../clib/angel/rt.s                       0x00000000   Number         0  rt_locale.o ABSOLUTE
    ../clib/angel/rt.s                       0x00000000   Number         0  rt_div0.o ABSOLUTE
    ../clib/angel/rt.s                       0x00000000   Number         0  rt_raise.o ABSOLUTE
    ../clib/angel/scatterp.s                 0x00000000   Number         0  __scatter.o ABSOLUTE
    ../clib/angel/startup.s                  0x00000000   Number         0  __main.o ABSOLUTE
    ../clib/angel/sys.s                      0x00000000   Number         0  tempstk.o ABSOLUTE
    ../clib/angel/sys.s                      0x00000000   Number         0  libspace.o ABSOLUTE
    ../clib/angel/sys.s                      0x00000000   Number         0  sys_stackheap_outer.o ABSOLUTE
    ../clib/angel/sys.s                      0x00000000   Number         0  indicate_semi.o ABSOLUTE
    ../clib/angel/sys.s                      0x00000000   Number         0  use_no_semi.o ABSOLUTE
    ../clib/angel/sysapp.c                   0x00000000   Number         0  sys_exit.o ABSOLUTE
    ../clib/angel/sysapp.c                   0x00000000   Number         0  sys_wrch.o ABSOLUTE
    ../clib/angel/sysapp.c                   0x00000000   Number         0  sys_command.o ABSOLUTE
    ../clib/armsys.c                         0x00000000   Number         0  argv_veneer.o ABSOLUTE
    ../clib/armsys.c                         0x00000000   Number         0  no_argv.o ABSOLUTE
    ../clib/armsys.c                         0x00000000   Number         0  _get_argv_nomalloc.o ABSOLUTE
    ../clib/bigflt.c                         0x00000000   Number         0  bigflt0.o ABSOLUTE
    ../clib/btod.c                           0x00000000   Number         0  btod.o ABSOLUTE
    ../clib/division.c                       0x00000000   Number         0  rtudiv10.o ABSOLUTE
    ../clib/division.c                       0x00000000   Number         0  lludiv10.o ABSOLUTE
    ../clib/division.s                       0x00000000   Number         0  aeabi_sdiv.o ABSOLUTE
    ../clib/division.s                       0x00000000   Number         0  aeabi_sdiv_div0.o ABSOLUTE
    ../clib/fenv.c                           0x00000000   Number         0  _rserrno.o ABSOLUTE
    ../clib/heapalloc.c                      0x00000000   Number         0  hrguard.o ABSOLUTE
    ../clib/heapaux.c                        0x00000000   Number         0  heapauxi.o ABSOLUTE
    ../clib/libinit.s                        0x00000000   Number         0  libshutdown.o ABSOLUTE
    ../clib/libinit.s                        0x00000000   Number         0  libinit2.o ABSOLUTE
    ../clib/libinit.s                        0x00000000   Number         0  libinit.o ABSOLUTE
    ../clib/libinit.s                        0x00000000   Number         0  libshutdown2.o ABSOLUTE
    ../clib/locale.s                         0x00000000   Number         0  lc_numeric_c.o ABSOLUTE
    ../clib/misc.s                           0x00000000   Number         0  printf_stubs.o ABSOLUTE
    ../clib/printf.c                         0x00000000   Number         0  _sputc.o ABSOLUTE
    ../clib/printf.c                         0x00000000   Number         0  noretval__2sprintf.o ABSOLUTE
    ../clib/printf.c                         0x00000000   Number         0  __printf.o ABSOLUTE
    ../clib/printf.c                         0x00000000   Number         0  __printf_flags.o ABSOLUTE
    ../clib/printf.c                         0x00000000   Number         0  __printf_ss.o ABSOLUTE
    ../clib/printf.c                         0x00000000   Number         0  __printf_flags_ss.o ABSOLUTE
    ../clib/printf.c                         0x00000000   Number         0  __printf_nopercent.o ABSOLUTE
    ../clib/printf.c                         0x00000000   Number         0  __printf_flags_wp.o ABSOLUTE
    ../clib/printf.c                         0x00000000   Number         0  __printf_wp.o ABSOLUTE
    ../clib/printf.c                         0x00000000   Number         0  __printf_ss_wp.o ABSOLUTE
    ../clib/printf.c                         0x00000000   Number         0  _printf_char_common.o ABSOLUTE
    ../clib/printf.c                         0x00000000   Number         0  _printf_fp_dec.o ABSOLUTE
    ../clib/printf.c                         0x00000000   Number         0  _printf_fp_infnan.o ABSOLUTE
    ../clib/printf.c                         0x00000000   Number         0  __printf_flags_ss_wp.o ABSOLUTE
    ../clib/printf.c                         0x00000000   Number         0  __2sprintf.o ABSOLUTE
    ../clib/printf_percent.s                 0x00000000   Number         0  _printf_percent.o ABSOLUTE
    ../clib/printf_percent.s                 0x00000000   Number         0  _printf_percent_end.o ABSOLUTE
    ../clib/printf_percent.s                 0x00000000   Number         0  _printf_f.o ABSOLUTE
    ../clib/signal.c                         0x00000000   Number         0  defsig_pvfn_inner.o ABSOLUTE
    ../clib/signal.c                         0x00000000   Number         0  defsig_cppl_inner.o ABSOLUTE
    ../clib/signal.c                         0x00000000   Number         0  defsig_segv_inner.o ABSOLUTE
    ../clib/signal.c                         0x00000000   Number         0  defsig_other.o ABSOLUTE
    ../clib/signal.c                         0x00000000   Number         0  defsig_fpe_formal.o ABSOLUTE
    ../clib/signal.c                         0x00000000   Number         0  defsig_fpe_inner.o ABSOLUTE
    ../clib/signal.c                         0x00000000   Number         0  defsig_exit.o ABSOLUTE
    ../clib/signal.c                         0x00000000   Number         0  defsig_fpe_outer.o ABSOLUTE
    ../clib/signal.c                         0x00000000   Number         0  defsig_abrt_inner.o ABSOLUTE
    ../clib/signal.c                         0x00000000   Number         0  __raise.o ABSOLUTE
    ../clib/signal.c                         0x00000000   Number         0  defsig_general.o ABSOLUTE
    ../clib/signal.c                         0x00000000   Number         0  defsig_rtmem_formal.o ABSOLUTE
    ../clib/signal.c                         0x00000000   Number         0  defsig_rtmem_outer.o ABSOLUTE
    ../clib/signal.c                         0x00000000   Number         0  defsig_rtred_inner.o ABSOLUTE
    ../clib/signal.c                         0x00000000   Number         0  defsig_rtmem_inner.o ABSOLUTE
    ../clib/signal.c                         0x00000000   Number         0  defsig_stak_inner.o ABSOLUTE
    ../clib/signal.s                         0x00000000   Number         0  defsig.o ABSOLUTE
    ../clib/stdlib.c                         0x00000000   Number         0  exit.o ABSOLUTE
    ../clib/string.c                         0x00000000   Number         0  strcmp.o ABSOLUTE
    ../clib/string.c                         0x00000000   Number         0  strlen.o ABSOLUTE
    ../fplib/cfplib/cmpret.c                 0x00000000   Number         0  cmpret.o ABSOLUTE
    ../fplib/cfplib/d2f.c                    0x00000000   Number         0  d2f.o ABSOLUTE
    ../fplib/cfplib/daddsub.c                0x00000000   Number         0  daddsub.o ABSOLUTE
    ../fplib/cfplib/dcmpin.c                 0x00000000   Number         0  dcmpin.o ABSOLUTE
    ../fplib/cfplib/ddiv.c                   0x00000000   Number         0  ddiv.o ABSOLUTE
    ../fplib/cfplib/dmul.c                   0x00000000   Number         0  dmul.o ABSOLUTE
    ../fplib/cfplib/dsqrt.c                  0x00000000   Number         0  dsqrt.o ABSOLUTE
    ../fplib/cfplib/f2d.c                    0x00000000   Number         0  f2d.o ABSOLUTE
    ../fplib/cfplib/fflt.c                   0x00000000   Number         0  dflti.o ABSOLUTE
    ../fplib/cfplib/fpinit.c                 0x00000000   Number         0  fpinit.o ABSOLUTE
    ../fplib/cfplib/ieee_status.c            0x00000000   Number         0  ieee_status.o ABSOLUTE
    ../fplib/cfplib/nan2.c                   0x00000000   Number         0  dnan2.o ABSOLUTE
    ../fplib/cfplib/retnan.c                 0x00000000   Number         0  retnan.o ABSOLUTE
    ../fplib/cfplib/scalbn.c                 0x00000000   Number         0  dscalbn.o ABSOLUTE
    ../fplib/dleqf6m.s                       0x00000000   Number         0  dlef.o ABSOLUTE
    ../fplib/drleqf6m.s                      0x00000000   Number         0  drlef.o ABSOLUTE
    ../fplib/printf1.s                       0x00000000   Number         0  printf1.o ABSOLUTE
    ../fplib/usenofp.s                       0x00000000   Number         0  usenofp.o ABSOLUTE
    ../mathlib/dunder.c                      0x00000000   Number         0  dunder.o ABSOLUTE
    ../mathlib/fpclassify.c                  0x00000000   Number         0  fpclassify.o ABSOLUTE
    ../mathlib/poly.c                        0x00000000   Number         0  poly.o ABSOLUTE
    ../mathlib/pow.c                         0x00000000   Number         0  pow_x.o ABSOLUTE
    ../mathlib/pow.c                         0x00000000   Number         0  pow.o ABSOLUTE
    ../mathlib/qnan.c                        0x00000000   Number         0  qnan.o ABSOLUTE
    ../mathlib/sqrt.c                        0x00000000   Number         0  sqrt_x.o ABSOLUTE
    ../mathlib/sqrt.c                        0x00000000   Number         0  sqrt.o ABSOLUTE
    MQ_5\Scr\adc.c                           0x00000000   Number         0  adc.o ABSOLUTE
    MQ_5\Scr\adc_voltage.c                   0x00000000   Number         0  adc_voltage.o ABSOLUTE
    RTE\Device\LPC11C14FBD48_301\startup_LPC11xx.s 0x00000000   Number         0  startup_lpc11xx.o ABSOLUTE
    RTE\Device\LPC11C14FBD48_301\system_LPC11xx.c 0x00000000   Number         0  system_lpc11xx.o ABSOLUTE
    RTE\\Device\\LPC11C14FBD48_301\\system_LPC11xx.c 0x00000000   Number         0  system_lpc11xx.o ABSOLUTE
    dc.s                                     0x00000000   Number         0  dc.o ABSOLUTE
    fan\\fan.c                               0x00000000   Number         0  fan.o ABSOLUTE
    fan\fan.c                                0x00000000   Number         0  fan.o ABSOLUTE
    main.c                                   0x00000000   Number         0  main.o ABSOLUTE
    main.c                                   0x00000000   Number         0  main.o ABSOLUTE
    speakers\\speaker.c                      0x00000000   Number         0  speaker.o ABSOLUTE
    speakers\speaker.c                       0x00000000   Number         0  speaker.o ABSOLUTE
    timer32\\timer32.c                       0x00000000   Number         0  timer32.o ABSOLUTE
    timer32\timer32.c                        0x00000000   Number         0  timer32.o ABSOLUTE
    uart\\uart.c                             0x00000000   Number         0  uart.o ABSOLUTE
    uart\uart.c                              0x00000000   Number         0  uart.o ABSOLUTE
    !!!main                                  0x000000c0   Section        8  __main.o(!!!main)
    !!!scatter                               0x000000c8   Section       60  __scatter.o(!!!scatter)
    !!handler_copy                           0x00000104   Section       26  __scatter_copy.o(!!handler_copy)
    !!handler_zi                             0x00000120   Section       28  __scatter_zi.o(!!handler_zi)
    .ARM.Collect$$_printf_percent$$00000000  0x0000013c   Section        2  _printf_percent.o(.ARM.Collect$$_printf_percent$$00000000)
    .ARM.Collect$$_printf_percent$$00000003  0x0000013e   Section       10  _printf_f.o(.ARM.Collect$$_printf_percent$$00000003)
    .ARM.Collect$$_printf_percent$$00000017  0x00000148   Section        4  _printf_percent_end.o(.ARM.Collect$$_printf_percent$$00000017)
    .ARM.Collect$$libinit$$00000000          0x0000014c   Section        2  libinit.o(.ARM.Collect$$libinit$$00000000)
    .ARM.Collect$$libinit$$00000002          0x0000014e   Section        0  libinit2.o(.ARM.Collect$$libinit$$00000002)
    .ARM.Collect$$libinit$$00000004          0x0000014e   Section        0  libinit2.o(.ARM.Collect$$libinit$$00000004)
    .ARM.Collect$$libinit$$0000000A          0x0000014e   Section        0  libinit2.o(.ARM.Collect$$libinit$$0000000A)
    .ARM.Collect$$libinit$$0000000C          0x0000014e   Section        0  libinit2.o(.ARM.Collect$$libinit$$0000000C)
    .ARM.Collect$$libinit$$0000000E          0x0000014e   Section        0  libinit2.o(.ARM.Collect$$libinit$$0000000E)
    .ARM.Collect$$libinit$$0000000F          0x0000014e   Section        6  libinit2.o(.ARM.Collect$$libinit$$0000000F)
    .ARM.Collect$$libinit$$00000011          0x00000154   Section        0  libinit2.o(.ARM.Collect$$libinit$$00000011)
    .ARM.Collect$$libinit$$00000013          0x00000154   Section        0  libinit2.o(.ARM.Collect$$libinit$$00000013)
    .ARM.Collect$$libinit$$00000015          0x00000154   Section        0  libinit2.o(.ARM.Collect$$libinit$$00000015)
    .ARM.Collect$$libinit$$00000016          0x00000154   Section       10  libinit2.o(.ARM.Collect$$libinit$$00000016)
    .ARM.Collect$$libinit$$00000017          0x0000015e   Section        0  libinit2.o(.ARM.Collect$$libinit$$00000017)
    .ARM.Collect$$libinit$$00000019          0x0000015e   Section        0  libinit2.o(.ARM.Collect$$libinit$$00000019)
    .ARM.Collect$$libinit$$0000001B          0x0000015e   Section        0  libinit2.o(.ARM.Collect$$libinit$$0000001B)
    .ARM.Collect$$libinit$$0000001D          0x0000015e   Section        0  libinit2.o(.ARM.Collect$$libinit$$0000001D)
    .ARM.Collect$$libinit$$0000001F          0x0000015e   Section        0  libinit2.o(.ARM.Collect$$libinit$$0000001F)
    .ARM.Collect$$libinit$$00000021          0x0000015e   Section        0  libinit2.o(.ARM.Collect$$libinit$$00000021)
    .ARM.Collect$$libinit$$00000023          0x0000015e   Section        0  libinit2.o(.ARM.Collect$$libinit$$00000023)
    .ARM.Collect$$libinit$$00000025          0x0000015e   Section        0  libinit2.o(.ARM.Collect$$libinit$$00000025)
    .ARM.Collect$$libinit$$0000002C          0x0000015e   Section        0  libinit2.o(.ARM.Collect$$libinit$$0000002C)
    .ARM.Collect$$libinit$$0000002E          0x0000015e   Section        0  libinit2.o(.ARM.Collect$$libinit$$0000002E)
    .ARM.Collect$$libinit$$00000030          0x0000015e   Section        0  libinit2.o(.ARM.Collect$$libinit$$00000030)
    .ARM.Collect$$libinit$$00000032          0x0000015e   Section        0  libinit2.o(.ARM.Collect$$libinit$$00000032)
    .ARM.Collect$$libinit$$00000033          0x0000015e   Section        2  libinit2.o(.ARM.Collect$$libinit$$00000033)
    .ARM.Collect$$libshutdown$$00000000      0x00000160   Section        2  libshutdown.o(.ARM.Collect$$libshutdown$$00000000)
    .ARM.Collect$$libshutdown$$00000002      0x00000162   Section        0  libshutdown2.o(.ARM.Collect$$libshutdown$$00000002)
    .ARM.Collect$$libshutdown$$00000004      0x00000162   Section        0  libshutdown2.o(.ARM.Collect$$libshutdown$$00000004)
    .ARM.Collect$$libshutdown$$00000007      0x00000162   Section        0  libshutdown2.o(.ARM.Collect$$libshutdown$$00000007)
    .ARM.Collect$$libshutdown$$0000000A      0x00000162   Section        0  libshutdown2.o(.ARM.Collect$$libshutdown$$0000000A)
    .ARM.Collect$$libshutdown$$0000000C      0x00000162   Section        0  libshutdown2.o(.ARM.Collect$$libshutdown$$0000000C)
    .ARM.Collect$$libshutdown$$0000000F      0x00000162   Section        0  libshutdown2.o(.ARM.Collect$$libshutdown$$0000000F)
    .ARM.Collect$$libshutdown$$00000010      0x00000162   Section        2  libshutdown2.o(.ARM.Collect$$libshutdown$$00000010)
    .ARM.Collect$$rtentry$$00000000          0x00000164   Section        0  __rtentry.o(.ARM.Collect$$rtentry$$00000000)
    .ARM.Collect$$rtentry$$00000002          0x00000164   Section        0  __rtentry2.o(.ARM.Collect$$rtentry$$00000002)
    .ARM.Collect$$rtentry$$00000004          0x00000164   Section        6  __rtentry4.o(.ARM.Collect$$rtentry$$00000004)
    .ARM.Collect$$rtentry$$00000009          0x0000016a   Section        0  __rtentry2.o(.ARM.Collect$$rtentry$$00000009)
    .ARM.Collect$$rtentry$$0000000A          0x0000016a   Section        4  __rtentry2.o(.ARM.Collect$$rtentry$$0000000A)
    .ARM.Collect$$rtentry$$0000000C          0x0000016e   Section        0  __rtentry2.o(.ARM.Collect$$rtentry$$0000000C)
    .ARM.Collect$$rtentry$$0000000D          0x0000016e   Section        8  __rtentry2.o(.ARM.Collect$$rtentry$$0000000D)
    .ARM.Collect$$rtexit$$00000000           0x00000176   Section        2  rtexit.o(.ARM.Collect$$rtexit$$00000000)
    .ARM.Collect$$rtexit$$00000002           0x00000178   Section        0  rtexit2.o(.ARM.Collect$$rtexit$$00000002)
    .ARM.Collect$$rtexit$$00000003           0x00000178   Section        4  rtexit2.o(.ARM.Collect$$rtexit$$00000003)
    .ARM.Collect$$rtexit$$00000004           0x0000017c   Section        6  rtexit2.o(.ARM.Collect$$rtexit$$00000004)
    .text                                    0x00000184   Section       52  startup_lpc11xx.o(.text)
    .text                                    0x000001b8   Section        0  noretval__2sprintf.o(.text)
    .text                                    0x000001e0   Section        0  __printf_wp.o(.text)
    .text                                    0x000002ee   Section        0  heapauxi.o(.text)
    .text                                    0x000002f4   Section        8  rt_locale_intlibspace.o(.text)
    .ARM.__at_0x02FC                         0x000002fc   Section        4  startup_lpc11xx.o(.ARM.__at_0x02FC)
    .text                                    0x00000300   Section        0  strlen.o(.text)
    .text                                    0x00000344   Section      346  aeabi_sdiv.o(.text)
    .text                                    0x000004a0   Section        0  d2f.o(.text)
    .text                                    0x0000051c   Section        0  ddiv.o(.text)
    .text                                    0x00000964   Section        0  dflti.o(.text)
    .text                                    0x000009bc   Section        0  dmul.o(.text)
    .text                                    0x00000c04   Section        0  f2d.o(.text)
    .text                                    0x00000c58   Section        0  _rserrno.o(.text)
    .text                                    0x00000c70   Section        0  _printf_fp_dec.o(.text)
    _fp_digits                               0x00000c73   Thumb Code   408  _printf_fp_dec.o(.text)
    .text                                    0x00001084   Section        0  _printf_char_common.o(.text)
    _printf_input_char                       0x00001085   Thumb Code    10  _printf_char_common.o(.text)
    .text                                    0x000010b4   Section        0  _sputc.o(.text)
    .text                                    0x000010c0   Section        0  daddsub.o(.text)
    _dadd1                                   0x000010c1   Thumb Code   290  daddsub.o(.text)
    _dsub1                                   0x000011e3   Thumb Code   470  daddsub.o(.text)
    .text                                    0x00001418   Section        0  dscalbn.o(.text)
    .text                                    0x00001478   Section        8  rt_errno_addr_intlibspace.o(.text)
    .text                                    0x00001480   Section        0  lludiv10.o(.text)
    .text                                    0x000014fc   Section        0  _printf_fp_infnan.o(.text)
    .text                                    0x00001584   Section        0  bigflt0.o(.text)
    .text                                    0x0000164c   Section        0  btod.o(.text)
    btod_internal_mul                        0x0000168d   Thumb Code   456  btod.o(.text)
    btod_internal_div                        0x00001855   Thumb Code   494  btod.o(.text)
    .text                                    0x00001b14   Section        0  rtudiv10.o(.text)
    .text                                    0x00001b3c   Section        0  dcmpin.o(.text)
    .text                                    0x00001bcc   Section        0  dsqrt.o(.text)
    .text                                    0x00001ccc   Section        8  libspace.o(.text)
    .text                                    0x00001cd4   Section       62  sys_stackheap_outer.o(.text)
    .text                                    0x00001d12   Section        0  exit.o(.text)
    .text                                    0x00001d24   Section        0  strcmp.o(.text)
    .text                                    0x00001dac   Section        0  cmpret.o(.text)
    .text                                    0x00001ddc   Section        0  dnan2.o(.text)
    .text                                    0x00001df0   Section        0  retnan.o(.text)
    .text                                    0x00001e50   Section        0  sys_exit.o(.text)
    .text                                    0x00001e5c   Section        2  use_no_semi.o(.text)
    .text                                    0x00001e5e   Section        0  indicate_semi.o(.text)
    i.ADCInit                                0x00001e60   Section        0  adc.o(i.ADCInit)
    i.ADCRead                                0x00001eec   Section        0  adc.o(i.ADCRead)
    i.Obtaining_adc_voltage                  0x00001f4c   Section        0  adc_voltage.o(i.Obtaining_adc_voltage)
    i.RecvFromUart                           0x00002014   Section        0  uart.o(i.RecvFromUart)
    i.SendToUart                             0x00002030   Section        0  uart.o(i.SendToUart)
    i.SystemInit                             0x00002048   Section        0  system_lpc11xx.o(i.SystemInit)
    i.TIMER32_0_IRQHandler                   0x000020e8   Section        0  timer32.o(i.TIMER32_0_IRQHandler)
    i.TIMER32_1_IRQHandler                   0x00002130   Section        0  timer32.o(i.TIMER32_1_IRQHandler)
    i.UART_IRQHandler                        0x00002178   Section        0  uart.o(i.UART_IRQHandler)
    i.__ARM_common_ll_muluu                  0x000021f4   Section        0  btod.o(i.__ARM_common_ll_muluu)
    i.__ARM_common_switch8                   0x00002224   Section        0  uart.o(i.__ARM_common_switch8)
    i.__ARM_fpclassify                       0x00002240   Section        0  fpclassify.o(i.__ARM_fpclassify)
    i.__kernel_poly                          0x0000226c   Section        0  poly.o(i.__kernel_poly)
    i.__mathlib_dbl_divzero                  0x00002318   Section        0  dunder.o(i.__mathlib_dbl_divzero)
    i.__mathlib_dbl_infnan2                  0x0000232c   Section        0  dunder.o(i.__mathlib_dbl_infnan2)
    i.__mathlib_dbl_invalid                  0x00002334   Section        0  dunder.o(i.__mathlib_dbl_invalid)
    i.__mathlib_dbl_overflow                 0x00002344   Section        0  dunder.o(i.__mathlib_dbl_overflow)
    i.__mathlib_dbl_underflow                0x00002358   Section        0  dunder.o(i.__mathlib_dbl_underflow)
    i._is_digit                              0x0000236c   Section        0  __printf_wp.o(i._is_digit)
    i.delay                                  0x0000237a   Section        0  fan.o(i.delay)
    delay                                    0x0000237b   Thumb Code    18  fan.o(i.delay)
    i.delay_ms                               0x0000238c   Section        0  uart.o(i.delay_ms)
    i.disable_timer32                        0x000023a0   Section        0  timer32.o(i.disable_timer32)
    i.enable_timer32                         0x000023bc   Section        0  timer32.o(i.enable_timer32)
    i.fan_init                               0x000023d8   Section        0  fan.o(i.fan_init)
    i.fan_off                                0x000023ec   Section        0  fan.o(i.fan_off)
    i.fan_on                                 0x00002400   Section        0  fan.o(i.fan_on)
    i.init_timer32PWM                        0x0000241c   Section        0  timer32.o(i.init_timer32PWM)
    i.led_init                               0x000025d4   Section        0  uart.o(i.led_init)
    i.led_off                                0x00002600   Section        0  uart.o(i.led_off)
    i.led_on                                 0x00002618   Section        0  uart.o(i.led_on)
    i.main                                   0x00002630   Section        0  main.o(i.main)
    i.pow                                    0x0000269c   Section        0  pow.o(i.pow)
    i.speaker_init                           0x00003098   Section        0  speaker.o(i.speaker_init)
    i.speaker_op                             0x000030cc   Section        0  uart.o(i.speaker_op)
    i.sqrt                                   0x00003108   Section        0  sqrt.o(i.sqrt)
    i.uart_init                              0x00003150   Section        0  uart.o(i.uart_init)
    locale$$code                             0x00003218   Section       44  lc_numeric_c.o(locale$$code)
    x$fpl$drleqf                             0x00003244   Section      104  drlef.o(x$fpl$drleqf)
    x$fpl$printf1                            0x000032ac   Section       16  printf1.o(x$fpl$printf1)
    .constdata                               0x000032bc   Section      128  ddiv.o(.constdata)
    x$fpl$usenofp                            0x000032bc   Section        0  usenofp.o(x$fpl$usenofp)
    ddiv_reciptbl                            0x000032bc   Data         128  ddiv.o(.constdata)
    .constdata                               0x00003340   Section      136  pow.o(.constdata)
    bp                                       0x00003340   Data          16  pow.o(.constdata)
    dp_h                                     0x00003350   Data          16  pow.o(.constdata)
    dp_l                                     0x00003360   Data          16  pow.o(.constdata)
    L                                        0x00003370   Data          48  pow.o(.constdata)
    P                                        0x000033a0   Data          40  pow.o(.constdata)
    .constdata                               0x000033c8   Section        8  qnan.o(.constdata)
    .constdata                               0x000033d0   Section      148  bigflt0.o(.constdata)
    tenpwrs_x                                0x000033d0   Data          60  bigflt0.o(.constdata)
    tenpwrs_i                                0x0000340c   Data          64  bigflt0.o(.constdata)
    locale$$data                             0x00003484   Section       28  lc_numeric_c.o(locale$$data)
    __lcnum_c_name                           0x00003488   Data           2  lc_numeric_c.o(locale$$data)
    __lcnum_c_start                          0x00003490   Data           0  lc_numeric_c.o(locale$$data)
    __lcnum_c_point                          0x0000349c   Data           0  lc_numeric_c.o(locale$$data)
    __lcnum_c_thousands                      0x0000349e   Data           0  lc_numeric_c.o(locale$$data)
    __lcnum_c_grouping                       0x0000349f   Data           0  lc_numeric_c.o(locale$$data)
    __lcnum_c_end                            0x000034a0   Data           0  lc_numeric_c.o(locale$$data)
    .data                                    0x10000000   Section        4  main.o(.data)
    .data                                    0x10000004   Section        8  uart.o(.data)
    .data                                    0x1000000c   Section       24  timer32.o(.data)
    .bss                                     0x10000024   Section       50  main.o(.bss)
    .bss                                     0x10000058   Section       96  libspace.o(.bss)
    HEAP                                     0x100000b8   Section        0  startup_lpc11xx.o(HEAP)
    STACK                                    0x100000b8   Section      512  startup_lpc11xx.o(STACK)
    Heap_Mem                                 0x100000b8   Data           0  startup_lpc11xx.o(HEAP)
    Stack_Mem                                0x100000b8   Data         512  startup_lpc11xx.o(STACK)
    __initial_sp                             0x100002b8   Data           0  startup_lpc11xx.o(STACK)

    Global Symbols

    Symbol Name                              Value     Ov Type        Size  Object(Section)

    BuildAttributes$$THM_ISAv3M$S$PE$A:L22$X:L11$S22$IEEE1$IW$USESV6$~STKCKD$USESV7$~SHL$OTIME$ROPI$IEEEX$EBA8$UX$STANDARDLIB$REQ8$PRES8$EABIv2 0x00000000   Number         0  anon$$obj.o ABSOLUTE
    __ARM_use_no_argv                        0x00000000   Number         0  main.o ABSOLUTE
    __Vectors                                0x00000000   Data           4  startup_lpc11xx.o(RESET)
    _printf_flags                            0x00000000   Number         0  printf_stubs.o ABSOLUTE
    _printf_return_value                     0x00000000   Number         0  printf_stubs.o ABSOLUTE
    _printf_sizespec                         0x00000000   Number         0  printf_stubs.o ABSOLUTE
    _printf_widthprec                        0x00000000   Number         0  printf_stubs.o ABSOLUTE
    __ARM_exceptions_init                     - Undefined Weak Reference
    __alloca_initialize                       - Undefined Weak Reference
    __arm_preinit_                            - Undefined Weak Reference
    __cpp_initialize__aeabi_                  - Undefined Weak Reference
    __cxa_finalize                            - Undefined Weak Reference
    __sigvec_lookup                           - Undefined Weak Reference
    _atexit_init                              - Undefined Weak Reference
    _call_atexit_fns                          - Undefined Weak Reference
    _clock_init                               - Undefined Weak Reference
    _fp_trap_init                             - Undefined Weak Reference
    _fp_trap_shutdown                         - Undefined Weak Reference
    _get_lc_collate                           - Undefined Weak Reference
    _get_lc_ctype                             - Undefined Weak Reference
    _get_lc_monetary                          - Undefined Weak Reference
    _get_lc_time                              - Undefined Weak Reference
    _getenv_init                              - Undefined Weak Reference
    _handle_redirection                       - Undefined Weak Reference
    _init_alloc                               - Undefined Weak Reference
    _init_user_alloc                          - Undefined Weak Reference
    _initio                                   - Undefined Weak Reference
    _printf_post_padding                      - Undefined Weak Reference
    _printf_pre_padding                       - Undefined Weak Reference
    _rand_init                                - Undefined Weak Reference
    _signal_finish                            - Undefined Weak Reference
    _signal_init                              - Undefined Weak Reference
    _terminate_alloc                          - Undefined Weak Reference
    _terminate_user_alloc                     - Undefined Weak Reference
    _terminateio                              - Undefined Weak Reference
    __main                                   0x000000c1   Thumb Code     8  __main.o(!!!main)
    __scatterload                            0x000000c9   Thumb Code     0  __scatter.o(!!!scatter)
    __scatterload_rt2                        0x000000c9   Thumb Code    52  __scatter.o(!!!scatter)
    __scatterload_rt2_thumb_only             0x000000c9   Thumb Code     0  __scatter.o(!!!scatter)
    __scatterload_null                       0x000000d9   Thumb Code     0  __scatter.o(!!!scatter)
    __scatterload_copy                       0x00000105   Thumb Code    26  __scatter_copy.o(!!handler_copy)
    __scatterload_zeroinit                   0x00000121   Thumb Code    28  __scatter_zi.o(!!handler_zi)
    _printf_percent                          0x0000013d   Thumb Code     0  _printf_percent.o(.ARM.Collect$$_printf_percent$$00000000)
    _printf_f                                0x0000013f   Thumb Code     0  _printf_f.o(.ARM.Collect$$_printf_percent$$00000003)
    _printf_percent_end                      0x00000149   Thumb Code     0  _printf_percent_end.o(.ARM.Collect$$_printf_percent$$00000017)
    __rt_lib_init                            0x0000014d   Thumb Code     0  libinit.o(.ARM.Collect$$libinit$$00000000)
    __rt_lib_init_fp_1                       0x0000014f   Thumb Code     0  libinit2.o(.ARM.Collect$$libinit$$00000002)
    __rt_lib_init_heap_1                     0x0000014f   Thumb Code     0  libinit2.o(.ARM.Collect$$libinit$$0000000A)
    __rt_lib_init_lc_common                  0x0000014f   Thumb Code     0  libinit2.o(.ARM.Collect$$libinit$$0000000F)
    __rt_lib_init_preinit_1                  0x0000014f   Thumb Code     0  libinit2.o(.ARM.Collect$$libinit$$00000004)
    __rt_lib_init_rand_1                     0x0000014f   Thumb Code     0  libinit2.o(.ARM.Collect$$libinit$$0000000E)
    __rt_lib_init_user_alloc_1               0x0000014f   Thumb Code     0  libinit2.o(.ARM.Collect$$libinit$$0000000C)
    __rt_lib_init_lc_collate_1               0x00000155   Thumb Code     0  libinit2.o(.ARM.Collect$$libinit$$00000011)
    __rt_lib_init_lc_ctype_1                 0x00000155   Thumb Code     0  libinit2.o(.ARM.Collect$$libinit$$00000013)
    __rt_lib_init_lc_monetary_1              0x00000155   Thumb Code     0  libinit2.o(.ARM.Collect$$libinit$$00000015)
    __rt_lib_init_lc_numeric_2               0x00000155   Thumb Code     0  libinit2.o(.ARM.Collect$$libinit$$00000016)
    __rt_lib_init_alloca_1                   0x0000015f   Thumb Code     0  libinit2.o(.ARM.Collect$$libinit$$0000002E)
    __rt_lib_init_argv_1                     0x0000015f   Thumb Code     0  libinit2.o(.ARM.Collect$$libinit$$0000002C)
    __rt_lib_init_atexit_1                   0x0000015f   Thumb Code     0  libinit2.o(.ARM.Collect$$libinit$$0000001B)
    __rt_lib_init_clock_1                    0x0000015f   Thumb Code     0  libinit2.o(.ARM.Collect$$libinit$$00000021)
    __rt_lib_init_cpp_1                      0x0000015f   Thumb Code     0  libinit2.o(.ARM.Collect$$libinit$$00000032)
    __rt_lib_init_exceptions_1               0x0000015f   Thumb Code     0  libinit2.o(.ARM.Collect$$libinit$$00000030)
    __rt_lib_init_fp_trap_1                  0x0000015f   Thumb Code     0  libinit2.o(.ARM.Collect$$libinit$$0000001F)
    __rt_lib_init_getenv_1                   0x0000015f   Thumb Code     0  libinit2.o(.ARM.Collect$$libinit$$00000023)
    __rt_lib_init_lc_numeric_1               0x0000015f   Thumb Code     0  libinit2.o(.ARM.Collect$$libinit$$00000017)
    __rt_lib_init_lc_time_1                  0x0000015f   Thumb Code     0  libinit2.o(.ARM.Collect$$libinit$$00000019)
    __rt_lib_init_return                     0x0000015f   Thumb Code     0  libinit2.o(.ARM.Collect$$libinit$$00000033)
    __rt_lib_init_signal_1                   0x0000015f   Thumb Code     0  libinit2.o(.ARM.Collect$$libinit$$0000001D)
    __rt_lib_init_stdio_1                    0x0000015f   Thumb Code     0  libinit2.o(.ARM.Collect$$libinit$$00000025)
    __rt_lib_shutdown                        0x00000161   Thumb Code     0  libshutdown.o(.ARM.Collect$$libshutdown$$00000000)
    __rt_lib_shutdown_cpp_1                  0x00000163   Thumb Code     0  libshutdown2.o(.ARM.Collect$$libshutdown$$00000002)
    __rt_lib_shutdown_fp_trap_1              0x00000163   Thumb Code     0  libshutdown2.o(.ARM.Collect$$libshutdown$$00000007)
    __rt_lib_shutdown_heap_1                 0x00000163   Thumb Code     0  libshutdown2.o(.ARM.Collect$$libshutdown$$0000000F)
    __rt_lib_shutdown_return                 0x00000163   Thumb Code     0  libshutdown2.o(.ARM.Collect$$libshutdown$$00000010)
    __rt_lib_shutdown_signal_1               0x00000163   Thumb Code     0  libshutdown2.o(.ARM.Collect$$libshutdown$$0000000A)
    __rt_lib_shutdown_stdio_1                0x00000163   Thumb Code     0  libshutdown2.o(.ARM.Collect$$libshutdown$$00000004)
    __rt_lib_shutdown_user_alloc_1           0x00000163   Thumb Code     0  libshutdown2.o(.ARM.Collect$$libshutdown$$0000000C)
    __rt_entry                               0x00000165   Thumb Code     0  __rtentry.o(.ARM.Collect$$rtentry$$00000000)
    __rt_entry_presh_1                       0x00000165   Thumb Code     0  __rtentry2.o(.ARM.Collect$$rtentry$$00000002)
    __rt_entry_sh                            0x00000165   Thumb Code     0  __rtentry4.o(.ARM.Collect$$rtentry$$00000004)
    __rt_entry_li                            0x0000016b   Thumb Code     0  __rtentry2.o(.ARM.Collect$$rtentry$$0000000A)
    __rt_entry_postsh_1                      0x0000016b   Thumb Code     0  __rtentry2.o(.ARM.Collect$$rtentry$$00000009)
    __rt_entry_main                          0x0000016f   Thumb Code     0  __rtentry2.o(.ARM.Collect$$rtentry$$0000000D)
    __rt_entry_postli_1                      0x0000016f   Thumb Code     0  __rtentry2.o(.ARM.Collect$$rtentry$$0000000C)
    __rt_exit                                0x00000177   Thumb Code     0  rtexit.o(.ARM.Collect$$rtexit$$00000000)
    __rt_exit_ls                             0x00000179   Thumb Code     0  rtexit2.o(.ARM.Collect$$rtexit$$00000003)
    __rt_exit_prels_1                        0x00000179   Thumb Code     0  rtexit2.o(.ARM.Collect$$rtexit$$00000002)
    __rt_exit_exit                           0x0000017d   Thumb Code     0  rtexit2.o(.ARM.Collect$$rtexit$$00000004)
    Reset_Handler                            0x00000185   Thumb Code     8  startup_lpc11xx.o(.text)
    NMI_Handler                              0x0000018d   Thumb Code     2  startup_lpc11xx.o(.text)
    HardFault_Handler                        0x0000018f   Thumb Code     2  startup_lpc11xx.o(.text)
    SVC_Handler                              0x00000191   Thumb Code     2  startup_lpc11xx.o(.text)
    PendSV_Handler                           0x00000193   Thumb Code     2  startup_lpc11xx.o(.text)
    SysTick_Handler                          0x00000195   Thumb Code     2  startup_lpc11xx.o(.text)
    ADC_IRQHandler                           0x00000197   Thumb Code     0  startup_lpc11xx.o(.text)
    BOD_IRQHandler                           0x00000197   Thumb Code     0  startup_lpc11xx.o(.text)
    CAN_IRQHandler                           0x00000197   Thumb Code     0  startup_lpc11xx.o(.text)
    FMC_IRQHandler                           0x00000197   Thumb Code     0  startup_lpc11xx.o(.text)
    I2C_IRQHandler                           0x00000197   Thumb Code     0  startup_lpc11xx.o(.text)
    PIOINT0_IRQHandler                       0x00000197   Thumb Code     0  startup_lpc11xx.o(.text)
    PIOINT1_IRQHandler                       0x00000197   Thumb Code     0  startup_lpc11xx.o(.text)
    PIOINT2_IRQHandler                       0x00000197   Thumb Code     0  startup_lpc11xx.o(.text)
    PIOINT3_IRQHandler                       0x00000197   Thumb Code     0  startup_lpc11xx.o(.text)
    SSP0_IRQHandler                          0x00000197   Thumb Code     0  startup_lpc11xx.o(.text)
    SSP1_IRQHandler                          0x00000197   Thumb Code     0  startup_lpc11xx.o(.text)
    TIMER16_0_IRQHandler                     0x00000197   Thumb Code     0  startup_lpc11xx.o(.text)
    TIMER16_1_IRQHandler                     0x00000197   Thumb Code     0  startup_lpc11xx.o(.text)
    USB_FIQHandler                           0x00000197   Thumb Code     0  startup_lpc11xx.o(.text)
    USB_IRQHandler                           0x00000197   Thumb Code     0  startup_lpc11xx.o(.text)
    WAKEUP_IRQHandler                        0x00000197   Thumb Code     0  startup_lpc11xx.o(.text)
    WDT_IRQHandler                           0x00000197   Thumb Code     0  startup_lpc11xx.o(.text)
    __user_initial_stackheap                 0x00000199   Thumb Code     0  startup_lpc11xx.o(.text)
    __2sprintf                               0x000001b9   Thumb Code    36  noretval__2sprintf.o(.text)
    __printf                                 0x000001e1   Thumb Code   270  __printf_wp.o(.text)
    __use_two_region_memory                  0x000002ef   Thumb Code     2  heapauxi.o(.text)
    __rt_heap_escrow$2region                 0x000002f1   Thumb Code     2  heapauxi.o(.text)
    __rt_heap_expand$2region                 0x000002f3   Thumb Code     2  heapauxi.o(.text)
    __rt_locale                              0x000002f5   Thumb Code     8  rt_locale_intlibspace.o(.text)
    strlen                                   0x00000301   Thumb Code    62  strlen.o(.text)
    __aeabi_uidiv                            0x00000345   Thumb Code     0  aeabi_sdiv.o(.text)
    __aeabi_uidivmod                         0x00000345   Thumb Code    20  aeabi_sdiv.o(.text)
    __aeabi_idiv                             0x00000359   Thumb Code     0  aeabi_sdiv.o(.text)
    __aeabi_idivmod                          0x00000359   Thumb Code   326  aeabi_sdiv.o(.text)
    __aeabi_d2f                              0x000004a1   Thumb Code     0  d2f.o(.text)
    _d2f                                     0x000004a1   Thumb Code   120  d2f.o(.text)
    __aeabi_ddiv                             0x0000051d   Thumb Code     0  ddiv.o(.text)
    _ddiv                                    0x0000051d   Thumb Code  1072  ddiv.o(.text)
    _drdiv                                   0x0000094d   Thumb Code    20  ddiv.o(.text)
    __aeabi_i2d_normalise                    0x00000965   Thumb Code    66  dflti.o(.text)
    __aeabi_i2d                              0x000009a7   Thumb Code    16  dflti.o(.text)
    _dflt                                    0x000009a7   Thumb Code     0  dflti.o(.text)
    __aeabi_ui2d                             0x000009b7   Thumb Code     6  dflti.o(.text)
    _dfltu                                   0x000009b7   Thumb Code     0  dflti.o(.text)
    __aeabi_dmul                             0x000009bd   Thumb Code     0  dmul.o(.text)
    _dmul                                    0x000009bd   Thumb Code   558  dmul.o(.text)
    __aeabi_f2d                              0x00000c05   Thumb Code     0  f2d.o(.text)
    _f2d                                     0x00000c05   Thumb Code    80  f2d.o(.text)
    __read_errno                             0x00000c59   Thumb Code    10  _rserrno.o(.text)
    __set_errno                              0x00000c63   Thumb Code    12  _rserrno.o(.text)
    __lib_sel_fp_printf                      0x00000c71   Thumb Code     2  _printf_fp_dec.o(.text)
    _printf_fp_dec_real                      0x00000e0b   Thumb Code   620  _printf_fp_dec.o(.text)
    _printf_char_common                      0x0000108f   Thumb Code    32  _printf_char_common.o(.text)
    _sputc                                   0x000010b5   Thumb Code    10  _sputc.o(.text)
    __aeabi_dadd                             0x000013b9   Thumb Code     0  daddsub.o(.text)
    _dadd                                    0x000013b9   Thumb Code    26  daddsub.o(.text)
    __aeabi_dsub                             0x000013d3   Thumb Code     0  daddsub.o(.text)
    _dsub                                    0x000013d3   Thumb Code    22  daddsub.o(.text)
    __aeabi_drsub                            0x000013e9   Thumb Code     0  daddsub.o(.text)
    _drsb                                    0x000013e9   Thumb Code    28  daddsub.o(.text)
    __ARM_scalbn                             0x00001419   Thumb Code    84  dscalbn.o(.text)
    __aeabi_errno_addr                       0x00001479   Thumb Code     8  rt_errno_addr_intlibspace.o(.text)
    __errno$intlibspace                      0x00001479   Thumb Code     0  rt_errno_addr_intlibspace.o(.text)
    __rt_errno_addr$intlibspace              0x00001479   Thumb Code     0  rt_errno_addr_intlibspace.o(.text)
    _ll_udiv10                               0x00001481   Thumb Code   122  lludiv10.o(.text)
    _printf_fp_infnan                        0x000014fd   Thumb Code   120  _printf_fp_infnan.o(.text)
    _btod_etento                             0x00001585   Thumb Code   196  bigflt0.o(.text)
    _btod_d2e                                0x0000164d   Thumb Code    64  btod.o(.text)
    _btod_emul                               0x00001a43   Thumb Code    24  btod.o(.text)
    _btod_emuld                              0x00001a5b   Thumb Code    88  btod.o(.text)
    _btod_ediv                               0x00001ab3   Thumb Code    22  btod.o(.text)
    _btod_edivd                              0x00001ac9   Thumb Code    60  btod.o(.text)
    __rt_udiv10                              0x00001b15   Thumb Code    40  rtudiv10.o(.text)
    __fpl_dcmp_InfNaN                        0x00001b3d   Thumb Code   140  dcmpin.o(.text)
    _dsqrt                                   0x00001bcd   Thumb Code   248  dsqrt.o(.text)
    __user_libspace                          0x00001ccd   Thumb Code     8  libspace.o(.text)
    __user_perproc_libspace                  0x00001ccd   Thumb Code     0  libspace.o(.text)
    __user_perthread_libspace                0x00001ccd   Thumb Code     0  libspace.o(.text)
    __user_setup_stackheap                   0x00001cd5   Thumb Code    62  sys_stackheap_outer.o(.text)
    exit                                     0x00001d13   Thumb Code    16  exit.o(.text)
    strcmp                                   0x00001d25   Thumb Code   132  strcmp.o(.text)
    __fpl_cmpreturn                          0x00001dad   Thumb Code    46  cmpret.o(.text)
    __fpl_dcheck_NaN2                        0x00001ddd   Thumb Code    14  dnan2.o(.text)
    __fpl_return_NaN                         0x00001df1   Thumb Code    94  retnan.o(.text)
    _sys_exit                                0x00001e51   Thumb Code     8  sys_exit.o(.text)
    __I$use$semihosting                      0x00001e5d   Thumb Code     0  use_no_semi.o(.text)
    __use_no_semihosting_swi                 0x00001e5d   Thumb Code     2  use_no_semi.o(.text)
    __semihosting_library_function           0x00001e5f   Thumb Code     0  indicate_semi.o(.text)
    ADCInit                                  0x00001e61   Thumb Code   114  adc.o(i.ADCInit)
    ADCRead                                  0x00001eed   Thumb Code    90  adc.o(i.ADCRead)
    Obtaining_adc_voltage                    0x00001f4d   Thumb Code   130  adc_voltage.o(i.Obtaining_adc_voltage)
    RecvFromUart                             0x00002015   Thumb Code    22  uart.o(i.RecvFromUart)
    SendToUart                               0x00002031   Thumb Code    20  uart.o(i.SendToUart)
    SystemInit                               0x00002049   Thumb Code   150  system_lpc11xx.o(i.SystemInit)
    TIMER32_0_IRQHandler                     0x000020e9   Thumb Code    58  timer32.o(i.TIMER32_0_IRQHandler)
    TIMER32_1_IRQHandler                     0x00002131   Thumb Code    58  timer32.o(i.TIMER32_1_IRQHandler)
    UART_IRQHandler                          0x00002179   Thumb Code   120  uart.o(i.UART_IRQHandler)
    __ARM_common_ll_muluu                    0x000021f5   Thumb Code    48  btod.o(i.__ARM_common_ll_muluu)
    __ARM_common_switch8                     0x00002225   Thumb Code    28  uart.o(i.__ARM_common_switch8)
    __ARM_fpclassify                         0x00002241   Thumb Code    40  fpclassify.o(i.__ARM_fpclassify)
    __kernel_poly                            0x0000226d   Thumb Code   172  poly.o(i.__kernel_poly)
    __mathlib_dbl_divzero                    0x00002319   Thumb Code    16  dunder.o(i.__mathlib_dbl_divzero)
    __mathlib_dbl_infnan2                    0x0000232d   Thumb Code     8  dunder.o(i.__mathlib_dbl_infnan2)
    __mathlib_dbl_invalid                    0x00002335   Thumb Code    16  dunder.o(i.__mathlib_dbl_invalid)
    __mathlib_dbl_overflow                   0x00002345   Thumb Code    16  dunder.o(i.__mathlib_dbl_overflow)
    __mathlib_dbl_underflow                  0x00002359   Thumb Code    14  dunder.o(i.__mathlib_dbl_underflow)
    _is_digit                                0x0000236d   Thumb Code    14  __printf_wp.o(i._is_digit)
    delay_ms                                 0x0000238d   Thumb Code    20  uart.o(i.delay_ms)
    disable_timer32                          0x000023a1   Thumb Code    20  timer32.o(i.disable_timer32)
    enable_timer32                           0x000023bd   Thumb Code    20  timer32.o(i.enable_timer32)
    fan_init                                 0x000023d9   Thumb Code    14  fan.o(i.fan_init)
    fan_off                                  0x000023ed   Thumb Code    14  fan.o(i.fan_off)
    fan_on                                   0x00002401   Thumb Code    24  fan.o(i.fan_on)
    init_timer32PWM                          0x0000241d   Thumb Code   416  timer32.o(i.init_timer32PWM)
    led_init                                 0x000025d5   Thumb Code    36  uart.o(i.led_init)
    led_off                                  0x00002601   Thumb Code    18  uart.o(i.led_off)
    led_on                                   0x00002619   Thumb Code    18  uart.o(i.led_on)
    main                                     0x00002631   Thumb Code   100  main.o(i.main)
    pow                                      0x0000269d   Thumb Code  2548  pow.o(i.pow)
    speaker_init                             0x00003099   Thumb Code    40  speaker.o(i.speaker_init)
    speaker_op                               0x000030cd   Thumb Code    52  uart.o(i.speaker_op)
    sqrt                                     0x00003109   Thumb Code    66  sqrt.o(i.sqrt)
    uart_init                                0x00003151   Thumb Code   182  uart.o(i.uart_init)
    _get_lc_numeric                          0x00003219   Thumb Code    44  lc_numeric_c.o(locale$$code)
    __aeabi_cdrcmple                         0x00003245   Thumb Code     0  drlef.o(x$fpl$drleqf)
    _drcmple                                 0x00003245   Thumb Code   100  drlef.o(x$fpl$drleqf)
    _printf_fp_dec                           0x000032ad   Thumb Code    16  printf1.o(x$fpl$printf1)
    __I$use$fp                               0x000032bc   Number         0  usenofp.o(x$fpl$usenofp)
    __mathlib_zero                           0x000033c8   Data           8  qnan.o(.constdata)
    Region$$Table$$Base                      0x00003464   Number         0  anon$$obj.o(Region$$Table)
    Region$$Table$$Limit                     0x00003484   Number         0  anon$$obj.o(Region$$Table)
    adv                                      0x10000000   Data           4  main.o(.data)
    cmd                                      0x10000004   Data           1  uart.o(.data)
    period                                   0x10000008   Data           4  uart.o(.data)
    timer32_0_counter                        0x1000000c   Data           4  timer32.o(.data)
    timer32_1_counter                        0x10000010   Data           4  timer32.o(.data)
    timer32_0_capture                        0x10000014   Data           4  timer32.o(.data)
    timer32_1_capture                        0x10000018   Data           4  timer32.o(.data)
    timer32_0_period                         0x1000001c   Data           4  timer32.o(.data)
    timer32_1_period                         0x10000020   Data           4  timer32.o(.data)
    buf                                      0x10000024   Data          50  main.o(.bss)
    __libspace_start                         0x10000058   Data          96  libspace.o(.bss)
    __temporary_stack_top$libspace           0x100000b8   Data           0  libspace.o(.bss)



==============================================================================

Memory Map of the image

  Image Entry point : 0x000000c1

  Load Region LR_IROM1 (Base: 0x00000000, Size: 0x000034c4, Max: 0x00008000, ABSOLUTE)

    Execution Region ER_IROM1 (Base: 0x00000000, Size: 0x000034a0, Max: 0x00008000, ABSOLUTE)

    Base Addr    Size         Type   Attr      Idx    E Section Name        Object

    0x00000000   0x000000c0   Data   RO          352    RESET               startup_lpc11xx.o
    0x000000c0   0x00000008   Code   RO          430  * !!!main             c_p.l(__main.o)
    0x000000c8   0x0000003c   Code   RO          709    !!!scatter          c_p.l(__scatter.o)
    0x00000104   0x0000001a   Code   RO          711    !!handler_copy      c_p.l(__scatter_copy.o)
    0x0000011e   0x00000002   PAD
    0x00000120   0x0000001c   Code   RO          713    !!handler_zi        c_p.l(__scatter_zi.o)
    0x0000013c   0x00000002   Code   RO          421    .ARM.Collect$$_printf_percent$$00000000  c_p.l(_printf_percent.o)
    0x0000013e   0x0000000a   Code   RO          420    .ARM.Collect$$_printf_percent$$00000003  c_p.l(_printf_f.o)
    0x00000148   0x00000004   Code   RO          468    .ARM.Collect$$_printf_percent$$00000017  c_p.l(_printf_percent_end.o)
    0x0000014c   0x00000002   Code   RO          575    .ARM.Collect$$libinit$$00000000  c_p.l(libinit.o)
    0x0000014e   0x00000000   Code   RO          577    .ARM.Collect$$libinit$$00000002  c_p.l(libinit2.o)
    0x0000014e   0x00000000   Code   RO          579    .ARM.Collect$$libinit$$00000004  c_p.l(libinit2.o)
    0x0000014e   0x00000000   Code   RO          582    .ARM.Collect$$libinit$$0000000A  c_p.l(libinit2.o)
    0x0000014e   0x00000000   Code   RO          584    .ARM.Collect$$libinit$$0000000C  c_p.l(libinit2.o)
    0x0000014e   0x00000000   Code   RO          586    .ARM.Collect$$libinit$$0000000E  c_p.l(libinit2.o)
    0x0000014e   0x00000006   Code   RO          587    .ARM.Collect$$libinit$$0000000F  c_p.l(libinit2.o)
    0x00000154   0x00000000   Code   RO          589    .ARM.Collect$$libinit$$00000011  c_p.l(libinit2.o)
    0x00000154   0x00000000   Code   RO          591    .ARM.Collect$$libinit$$00000013  c_p.l(libinit2.o)
    0x00000154   0x00000000   Code   RO          593    .ARM.Collect$$libinit$$00000015  c_p.l(libinit2.o)
    0x00000154   0x0000000a   Code   RO          594    .ARM.Collect$$libinit$$00000016  c_p.l(libinit2.o)
    0x0000015e   0x00000000   Code   RO          595    .ARM.Collect$$libinit$$00000017  c_p.l(libinit2.o)
    0x0000015e   0x00000000   Code   RO          597    .ARM.Collect$$libinit$$00000019  c_p.l(libinit2.o)
    0x0000015e   0x00000000   Code   RO          599    .ARM.Collect$$libinit$$0000001B  c_p.l(libinit2.o)
    0x0000015e   0x00000000   Code   RO          601    .ARM.Collect$$libinit$$0000001D  c_p.l(libinit2.o)
    0x0000015e   0x00000000   Code   RO          603    .ARM.Collect$$libinit$$0000001F  c_p.l(libinit2.o)
    0x0000015e   0x00000000   Code   RO          605    .ARM.Collect$$libinit$$00000021  c_p.l(libinit2.o)
    0x0000015e   0x00000000   Code   RO          607    .ARM.Collect$$libinit$$00000023  c_p.l(libinit2.o)
    0x0000015e   0x00000000   Code   RO          609    .ARM.Collect$$libinit$$00000025  c_p.l(libinit2.o)
    0x0000015e   0x00000000   Code   RO          613    .ARM.Collect$$libinit$$0000002C  c_p.l(libinit2.o)
    0x0000015e   0x00000000   Code   RO          615    .ARM.Collect$$libinit$$0000002E  c_p.l(libinit2.o)
    0x0000015e   0x00000000   Code   RO          617    .ARM.Collect$$libinit$$00000030  c_p.l(libinit2.o)
    0x0000015e   0x00000000   Code   RO          619    .ARM.Collect$$libinit$$00000032  c_p.l(libinit2.o)
    0x0000015e   0x00000002   Code   RO          620    .ARM.Collect$$libinit$$00000033  c_p.l(libinit2.o)
    0x00000160   0x00000002   Code   RO          674    .ARM.Collect$$libshutdown$$00000000  c_p.l(libshutdown.o)
    0x00000162   0x00000000   Code   RO          692    .ARM.Collect$$libshutdown$$00000002  c_p.l(libshutdown2.o)
    0x00000162   0x00000000   Code   RO          694    .ARM.Collect$$libshutdown$$00000004  c_p.l(libshutdown2.o)
    0x00000162   0x00000000   Code   RO          697    .ARM.Collect$$libshutdown$$00000007  c_p.l(libshutdown2.o)
    0x00000162   0x00000000   Code   RO          700    .ARM.Collect$$libshutdown$$0000000A  c_p.l(libshutdown2.o)
    0x00000162   0x00000000   Code   RO          702    .ARM.Collect$$libshutdown$$0000000C  c_p.l(libshutdown2.o)
    0x00000162   0x00000000   Code   RO          705    .ARM.Collect$$libshutdown$$0000000F  c_p.l(libshutdown2.o)
    0x00000162   0x00000002   Code   RO          706    .ARM.Collect$$libshutdown$$00000010  c_p.l(libshutdown2.o)
    0x00000164   0x00000000   Code   RO          455    .ARM.Collect$$rtentry$$00000000  c_p.l(__rtentry.o)
    0x00000164   0x00000000   Code   RO          504    .ARM.Collect$$rtentry$$00000002  c_p.l(__rtentry2.o)
    0x00000164   0x00000006   Code   RO          516    .ARM.Collect$$rtentry$$00000004  c_p.l(__rtentry4.o)
    0x0000016a   0x00000000   Code   RO          506    .ARM.Collect$$rtentry$$00000009  c_p.l(__rtentry2.o)
    0x0000016a   0x00000004   Code   RO          507    .ARM.Collect$$rtentry$$0000000A  c_p.l(__rtentry2.o)
    0x0000016e   0x00000000   Code   RO          509    .ARM.Collect$$rtentry$$0000000C  c_p.l(__rtentry2.o)
    0x0000016e   0x00000008   Code   RO          510    .ARM.Collect$$rtentry$$0000000D  c_p.l(__rtentry2.o)
    0x00000176   0x00000002   Code   RO          626    .ARM.Collect$$rtexit$$00000000  c_p.l(rtexit.o)
    0x00000178   0x00000000   Code   RO          643    .ARM.Collect$$rtexit$$00000002  c_p.l(rtexit2.o)
    0x00000178   0x00000004   Code   RO          644    .ARM.Collect$$rtexit$$00000003  c_p.l(rtexit2.o)
    0x0000017c   0x00000006   Code   RO          645    .ARM.Collect$$rtexit$$00000004  c_p.l(rtexit2.o)
    0x00000182   0x00000002   PAD
    0x00000184   0x00000034   Code   RO          354    .text               startup_lpc11xx.o
    0x000001b8   0x00000028   Code   RO          396    .text               c_p.l(noretval__2sprintf.o)
    0x000001e0   0x0000010e   Code   RO          408    .text               c_p.l(__printf_wp.o)
    0x000002ee   0x00000006   Code   RO          428    .text               c_p.l(heapauxi.o)
    0x000002f4   0x00000008   Code   RO          523    .text               c_p.l(rt_locale_intlibspace.o)
    0x000002fc   0x00000004   Code   RO          353    .ARM.__at_0x02FC    startup_lpc11xx.o
    0x00000300   0x00000044   Code   RO          422    .text               c_p.l(strlen.o)
    0x00000344   0x0000015a   Code   RO          424    .text               c_p.l(aeabi_sdiv.o)
    0x0000049e   0x00000002   PAD
    0x000004a0   0x0000007c   Code   RO          432    .text               fz_ps.l(d2f.o)
    0x0000051c   0x00000448   Code   RO          434    .text               fz_ps.l(ddiv.o)
    0x00000964   0x00000058   Code   RO          437    .text               fz_ps.l(dflti.o)
    0x000009bc   0x00000248   Code   RO          439    .text               fz_ps.l(dmul.o)
    0x00000c04   0x00000054   Code   RO          441    .text               fz_ps.l(f2d.o)
    0x00000c58   0x00000016   Code   RO          460    .text               c_p.l(_rserrno.o)
    0x00000c6e   0x00000002   PAD
    0x00000c70   0x00000414   Code   RO          462    .text               c_p.l(_printf_fp_dec.o)
    0x00001084   0x00000030   Code   RO          464    .text               c_p.l(_printf_char_common.o)
    0x000010b4   0x0000000a   Code   RO          466    .text               c_p.l(_sputc.o)
    0x000010be   0x00000002   PAD
    0x000010c0   0x00000358   Code   RO          469    .text               fz_ps.l(daddsub.o)
    0x00001418   0x00000060   Code   RO          473    .text               fz_ps.l(dscalbn.o)
    0x00001478   0x00000008   Code   RO          528    .text               c_p.l(rt_errno_addr_intlibspace.o)
    0x00001480   0x0000007a   Code   RO          530    .text               c_p.l(lludiv10.o)
    0x000014fa   0x00000002   PAD
    0x000014fc   0x00000088   Code   RO          532    .text               c_p.l(_printf_fp_infnan.o)
    0x00001584   0x000000c8   Code   RO          536    .text               c_p.l(bigflt0.o)
    0x0000164c   0x000004c8   Code   RO          539    .text               c_p.l(btod.o)
    0x00001b14   0x00000028   Code   RO          546    .text               c_p.l(rtudiv10.o)
    0x00001b3c   0x00000090   Code   RO          548    .text               fz_ps.l(dcmpin.o)
    0x00001bcc   0x00000100   Code   RO          552    .text               fz_ps.l(dsqrt.o)
    0x00001ccc   0x00000008   Code   RO          556    .text               c_p.l(libspace.o)
    0x00001cd4   0x0000003e   Code   RO          559    .text               c_p.l(sys_stackheap_outer.o)
    0x00001d12   0x00000010   Code   RO          562    .text               c_p.l(exit.o)
    0x00001d22   0x00000002   PAD
    0x00001d24   0x00000088   Code   RO          568    .text               c_p.l(strcmp.o)
    0x00001dac   0x0000002e   Code   RO          621    .text               fz_ps.l(cmpret.o)
    0x00001dda   0x00000002   PAD
    0x00001ddc   0x00000014   Code   RO          623    .text               fz_ps.l(dnan2.o)
    0x00001df0   0x0000005e   Code   RO          638    .text               fz_ps.l(retnan.o)
    0x00001e4e   0x00000002   PAD
    0x00001e50   0x0000000c   Code   RO          640    .text               c_p.l(sys_exit.o)
    0x00001e5c   0x00000002   Code   RO          661    .text               c_p.l(use_no_semi.o)
    0x00001e5e   0x00000000   Code   RO          663    .text               c_p.l(indicate_semi.o)
    0x00001e5e   0x00000002   PAD
    0x00001e60   0x0000008c   Code   RO          230    i.ADCInit           adc.o
    0x00001eec   0x00000060   Code   RO          231    i.ADCRead           adc.o
    0x00001f4c   0x000000c8   Code   RO          248    i.Obtaining_adc_voltage  adc_voltage.o
    0x00002014   0x0000001c   Code   RO           78    i.RecvFromUart      uart.o
    0x00002030   0x00000018   Code   RO           79    i.SendToUart        uart.o
    0x00002048   0x000000a0   Code   RO          363    i.SystemInit        system_lpc11xx.o
    0x000020e8   0x00000048   Code   RO          267    i.TIMER32_0_IRQHandler  timer32.o
    0x00002130   0x00000048   Code   RO          268    i.TIMER32_1_IRQHandler  timer32.o
    0x00002178   0x0000007c   Code   RO           80    i.UART_IRQHandler   uart.o
    0x000021f4   0x00000030   Code   RO          541    i.__ARM_common_ll_muluu  c_p.l(btod.o)
    0x00002224   0x0000001c   Code   RO          144    i.__ARM_common_switch8  uart.o
    0x00002240   0x0000002c   Code   RO          490    i.__ARM_fpclassify  m_ps.l(fpclassify.o)
    0x0000226c   0x000000ac   Code   RO          492    i.__kernel_poly     m_ps.l(poly.o)
    0x00002318   0x00000014   Code   RO          476    i.__mathlib_dbl_divzero  m_ps.l(dunder.o)
    0x0000232c   0x00000008   Code   RO          478    i.__mathlib_dbl_infnan2  m_ps.l(dunder.o)
    0x00002334   0x00000010   Code   RO          479    i.__mathlib_dbl_invalid  m_ps.l(dunder.o)
    0x00002344   0x00000014   Code   RO          480    i.__mathlib_dbl_overflow  m_ps.l(dunder.o)
    0x00002358   0x00000014   Code   RO          482    i.__mathlib_dbl_underflow  m_ps.l(dunder.o)
    0x0000236c   0x0000000e   Code   RO          410    i._is_digit         c_p.l(__printf_wp.o)
    0x0000237a   0x00000012   Code   RO          190    i.delay             fan.o
    0x0000238c   0x00000014   Code   RO           81    i.delay_ms          uart.o
    0x000023a0   0x0000001c   Code   RO          271    i.disable_timer32   timer32.o
    0x000023bc   0x0000001c   Code   RO          272    i.enable_timer32    timer32.o
    0x000023d8   0x00000014   Code   RO          192    i.fan_init          fan.o
    0x000023ec   0x00000014   Code   RO          193    i.fan_off           fan.o
    0x00002400   0x0000001c   Code   RO          194    i.fan_on            fan.o
    0x0000241c   0x000001b8   Code   RO          274    i.init_timer32PWM   timer32.o
    0x000025d4   0x0000002c   Code   RO           82    i.led_init          uart.o
    0x00002600   0x00000018   Code   RO           83    i.led_off           uart.o
    0x00002618   0x00000018   Code   RO           84    i.led_on            uart.o
    0x00002630   0x0000006c   Code   RO            5    i.main              main.o
    0x0000269c   0x000009fc   Code   RO          446    i.pow               m_ps.l(pow.o)
    0x00003098   0x00000034   Code   RO          159    i.speaker_init      speaker.o
    0x000030cc   0x0000003c   Code   RO           85    i.speaker_op        uart.o
    0x00003108   0x00000048   Code   RO          496    i.sqrt              m_ps.l(sqrt.o)
    0x00003150   0x000000c8   Code   RO           86    i.uart_init         uart.o
    0x00003218   0x0000002c   Code   RO          544    locale$$code        c_p.l(lc_numeric_c.o)
    0x00003244   0x00000068   Code   RO          471    x$fpl$drleqf        fz_ps.l(drlef.o)
    0x000032ac   0x00000010   Code   RO          443    x$fpl$printf1       fz_ps.l(printf1.o)
    0x000032bc   0x00000000   Code   RO          475    x$fpl$usenofp       fz_ps.l(usenofp.o)
    0x000032bc   0x00000080   Data   RO          435    .constdata          fz_ps.l(ddiv.o)
    0x0000333c   0x00000004   PAD
    0x00003340   0x00000088   Data   RO          447    .constdata          m_ps.l(pow.o)
    0x000033c8   0x00000008   Data   RO          494    .constdata          m_ps.l(qnan.o)
    0x000033d0   0x00000094   Data   RO          537    .constdata          c_p.l(bigflt0.o)
    0x00003464   0x00000020   Data   RO          707    Region$$Table       anon$$obj.o
    0x00003484   0x0000001c   Data   RO          543    locale$$data        c_p.l(lc_numeric_c.o)


    Execution Region RW_IRAM1 (Base: 0x10000000, Size: 0x000002b8, Max: 0x00002000, ABSOLUTE)

    Base Addr    Size         Type   Attr      Idx    E Section Name        Object

    0x10000000   0x00000004   Data   RW            7    .data               main.o
    0x10000004   0x00000008   Data   RW           87    .data               uart.o
    0x1000000c   0x00000018   Data   RW          278    .data               timer32.o
    0x10000024   0x00000032   Zero   RW            6    .bss                main.o
    0x10000056   0x00000002   PAD
    0x10000058   0x00000060   Zero   RW          557    .bss                c_p.l(libspace.o)
    0x100000b8   0x00000000   Zero   RW          351    HEAP                startup_lpc11xx.o
    0x100000b8   0x00000200   Zero   RW          350    STACK               startup_lpc11xx.o


==============================================================================

Image component sizes


      Code (inc. data)   RO Data    RW Data    ZI Data      Debug   Object Name

       236         32          0          0          0       1060   adc.o
       200         70          0          0          0        480   adc_voltage.o
        86         16          0          0          0       1486   fan.o
       108          8          0          4         50      13493   main.o
        52         12          0          0          0        391   speaker.o
        56         26        192          0        512        848   startup_lpc11xx.o
       160         10          0          0          0       1649   system_lpc11xx.o
       640         68          0         24          0       3291   timer32.o
       576         68          0          8          0      11689   uart.o

    ----------------------------------------------------------------------
      2114        310        224         36        564      34387   Object Totals
         0          0         32          0          0          0   (incl. Generated)
         0          0          0          0          2          0   (incl. Padding)

    ----------------------------------------------------------------------

      Code (inc. data)   RO Data    RW Data    ZI Data      Debug   Library Member Name

         8          0          0          0          0         68   __main.o
       284          0          0          0          0        136   __printf_wp.o
         0          0          0          0          0          0   __rtentry.o
        12          0          0          0          0          0   __rtentry2.o
         6          0          0          0          0          0   __rtentry4.o
        60          8          0          0          0          0   __scatter.o
        26          0          0          0          0          0   __scatter_copy.o
        28          0          0          0          0          0   __scatter_zi.o
        48          6          0          0          0         88   _printf_char_common.o
        10          0          0          0          0          0   _printf_f.o
      1044         14          0          0          0        176   _printf_fp_dec.o
       136         16          0          0          0         76   _printf_fp_infnan.o
         2          0          0          0          0          0   _printf_percent.o
         4          0          0          0          0          0   _printf_percent_end.o
        22          0          0          0          0         92   _rserrno.o
        10          0          0          0          0         60   _sputc.o
       346          0          0          0          0         92   aeabi_sdiv.o
       200          4        148          0          0         80   bigflt0.o
      1272         16          0          0          0        328   btod.o
        16          0          0          0          0         68   exit.o
         6          0          0          0          0        136   heapauxi.o
         0          0          0          0          0          0   indicate_semi.o
        44         10         28          0          0         76   lc_numeric_c.o
         2          0          0          0          0          0   libinit.o
        18          0          0          0          0          0   libinit2.o
         2          0          0          0          0          0   libshutdown.o
         2          0          0          0          0          0   libshutdown2.o
         8          4          0          0         96         68   libspace.o
       122          0          0          0          0         72   lludiv10.o
        40          4          0          0          0         84   noretval__2sprintf.o
         8          4          0          0          0         68   rt_errno_addr_intlibspace.o
         8          4          0          0          0         68   rt_locale_intlibspace.o
         2          0          0          0          0          0   rtexit.o
        10          0          0          0          0          0   rtexit2.o
        40          0          0          0          0         60   rtudiv10.o
       136          4          0          0          0         72   strcmp.o
        68          6          0          0          0         72   strlen.o
        12          4          0          0          0         60   sys_exit.o
        62          0          0          0          0         80   sys_stackheap_outer.o
         2          0          0          0          0         68   use_no_semi.o
        46          0          0          0          0         60   cmpret.o
       124          4          0          0          0         72   d2f.o
       856         20          0          0          0        208   daddsub.o
       144          4          0          0          0         76   dcmpin.o
      1096         26        128          0          0        112   ddiv.o
        88          0          0          0          0         92   dflti.o
       584         26          0          0          0         84   dmul.o
        20          6          0          0          0         68   dnan2.o
       104          4          0          0          0        104   drlef.o
        96         12          0          0          0         72   dscalbn.o
       256          8          0          0          0         76   dsqrt.o
        84          4          0          0          0         60   f2d.o
        16          4          0          0          0         76   printf1.o
        94          0          0          0          0         68   retnan.o
         0          0          0          0          0          0   usenofp.o
        84         14          0          0          0        340   dunder.o
        44          4          0          0          0         60   fpclassify.o
       172          0          0          0          0         76   poly.o
      2556        196        136          0          0        240   pow.o
         0          0          8          0          0          0   qnan.o
        72          6          0          0          0         76   sqrt.o

    ----------------------------------------------------------------------
     10682        442        452          0         96       4268   Library Totals
        20          0          4          0          0          0   (incl. Padding)

    ----------------------------------------------------------------------

      Code (inc. data)   RO Data    RW Data    ZI Data      Debug   Library Name

      4126        104        176          0         96       2248   c_p.l
      3608        118        128          0          0       1228   fz_ps.l
      2928        220        144          0          0        792   m_ps.l

    ----------------------------------------------------------------------
     10682        442        452          0         96       4268   Library Totals

    ----------------------------------------------------------------------

==============================================================================


      Code (inc. data)   RO Data    RW Data    ZI Data      Debug   

     12796        752        676         36        660      35699   Grand Totals
     12796        752        676         36        660      35699   ELF Image Totals
     12796        752        676         36          0          0   ROM Totals

==============================================================================

    Total RO  Size (Code + RO Data)                13472 (  13.16kB)
    Total RW  Size (RW Data + ZI Data)               696 (   0.68kB)
    Total ROM Size (Code + RO Data + RW Data)      13508 (  13.19kB)

==============================================================================

