:020000040000FA
:10000000600200104901000051010000530100008E
:1000100000000000000000000000000000000000E0
:10002000000000000000000000000000550100007A
:10003000000000000000000057010000590100000E
:100040005B0100005B0100005B0100005B01000040
:100050005B0100005B0100005B0100005B01000030
:100060005B0100005B0100005B0100005B01000020
:100070005B0100005B0100005B0100005B01000010
:100080005B0100005B0100005B0100005B01000000
:100090005B0100005B0100005B0100005B010000F0
:1000A0005B0100005B0100005B0100005B010000E0
:1000B0005B0100005B0100005B0100005B010000D0
:1000C00000F002F800F030F80CA030C8083824180E
:1000D0002D18A246671EAB4654465D46AC4201D180
:1000E00000F022F87E460F3E0FCCB6460126334282
:1000F00000D0FB1AA246AB46334318470402000067
:10010000140200000023002400250026103A01D329
:1001100078C1FBD8520700D330C100D50B607047BF
:100120001FB51FBD10B510BD00F02BF81146FFF72D
:10013000F7FF00F0D1F800F043F803B4FFF7F2FF47
:1001400003BC00F049F80000074880470748004713
:10015000FEE7FEE7FEE7FEE7FEE7FEE704480549A7
:10016000034A054B70470000E9010000C100000090
:1001700060000010600200106000001070477047BF
:100180007047754600F024F8AE46050069465346B0
:10019000C008C000854618B020B5FFF7DFFF60BC7F
:1001A00000274908B6460026C0C5C0C5C0C5C0C5A1
:1001B000C0C5C0C5C0C5C0C5403D49008D467047DB
:1001C00010B50446C046C0462046FFF7B6FF10BD36
:1001D000004870470000001001491820ABBEFEE740
:1001E000260002007047000008B52548806B2021DA
:1001F000884323498863002022490862009003E075
:1002000000BF0098401C00900098C828F8D3012037
:100210001C49403108604860002048600120486067
:1002200000BF184840304068C007C00F0028F8D011
:100230002320144988601248806B8021884310492C
:10024000886300BF0F48C068C007C00F0028F9D0FE
:1002500003200C49403108630120486300204863B3
:100260000120486300BF07484030406BC007C00F03
:100270000028F8D0012003494031886308BD000000
:100280000082044000800440002100E0491C7D22DF
:10029000520142438A42F9D870470000034800687F
:1002A00004210843014908607047000000800050A5
:1002B0000348C06B042108430149C863704700002C
:1002C000C03F00500348C06B042188430149C86304
:1002D00070470000C03F0050FFF7E0FF07E0FFF766
:1002E000F1FF7D204001FFF7CFFFFFF7E1FFF6E7C9
:1002F000000000000000000000000000FFFFFFFF02
:100300001003000000000010600200000401000063
:04000005000000C136
:00000001FF
